:100000000C9472000C9493000C9493000C94930045
:100010000C9493000C9493000C9493000C94930014
:100020000C9493000C9493000C9493000C94930004
:100030000C9493000C9493000C9493000C949300F4
:100040000C9493000C9493000C9493000C949300E4
:100050000C9493000C9493000C9493000C949300D4
:100060000C9493000C9493000C9493000C949300C4
:100070000C9493000C9493000C9493000C949300B4
:100080000C9493000C9493000C9493000C949300A4
:100090000C9493000C9493000C9493000C94930094
:1000A0000C9493000C9493000C9493000C94930084
:1000B0000C9493000C9493000C9493000C94930074
:1000C0000C9493000C9493000C9493000C94930064
:1000D0000C9493000C9493000C9493000C94930054
:1000E0000C94930011241FBECFEFD1E2DEBFCDBF31
:1000F00000E00CBF12E0A0E0B2E0E4E5F4E200E0D2
:100100000BBF02C007900D92A236B107D9F712E0DB
:10011000A2E6B2E001C01D92A836B107E1F70E9445
:10012000D5030C9428120C940000DF93CF93CDB725
:10013000DEB781E00E946706CF91DF910895DF93DB
:10014000CF9300D00F92CDB7DEB79C838B831A82FA
:10015000198205C089819A8101969A8389832981B0
:100160003A818B819C81FC01E20FF31F80818823FF
:1001700089F789819A810F900F900F900F90CF91FE
:10018000DF9108950F931F93DF93CF93CDB7DEB721
:1001900028970FB6F894DEBF0FBECDBF9C838B832C
:1001A0007E836D8358874F831A82198239C08D816F
:1001B0009E810E949F009C0189819A8182179307EA
:1001C0008CF429813A818B819C81DC01A20FB31FC1
:1001D00029813A818D819E81FC01E20FF31F80818C
:1001E0008C9319C029813A818B819C818C01020FEB
:1001F000131F8D819E810E949F009C0189819A819D
:10020000821B930B9C018F819885FC01E20FF31FE9
:100210008081F801808389819A8101969A838983FC
:1002200089819A818031910514F228960FB6F8944D
:10023000DEBF0FBECDBFCF91DF911F910F9108950B
:10024000DF93CF9300D000D0CDB7DEB7AAE7B0E000
:10025000EAE7F0E0808180648C93EAE7F0E0808157
:10026000882F90E0807490700097B9F7E8E7F0E08D
:100270008081882F90E09C838B83E9E7F0E0808188
:10028000882F90E09A83898389819A81382F222749
:100290008B819C81820F931F9C838B83809166024C
:1002A000909167028130910569F48B819C8123E0F4
:1002B0008538920720F010926702109266021E8223
:1002C0001D8273C08B819C8123E08631920730F4BC
:1002D00081E090E090936702809366028B819C811D
:1002E00082339105B8F4809100029091010283302D
:1002F00091054CF08091000290910102019790933A
:100300000102809300020E94930281E090E09E83AC
:100310008D834BC08B819C81833C910558F481E097
:1003200090E0909365028093640282E090E09E8367
:100330008D833BC08B819C8121E08C37920748F4F0
:10034000109265021092640284E090E09E838D8397
:100350002CC08B819C8122E08B329207B8F4809173
:10036000000290910102863091054CF480910002C8
:1003700090910102019690930102809300020E94E5
:10038000DE0288E090E09E838D830FC08B819C818C
:1003900023E08631920738F40E94280380E190E040
:1003A0009E838D8302C01E821D828D819E81269632
:1003B0000FB6F894DEBF0FBECDBFCF91DF91089589
:1003C000DF93CF93CDB7DEB762970FB6F894DEBF59
:1003D0000FBECDBF9A8B898B188A1F867DC080E0A7
:1003E00090E0A8ECB2E48B879C87AD87BE876B85D5
:1003F0007C858D859E8520E030E04AE755E40E94AB
:10040000C10DDC01CB018F839887A987BA876F81E3
:10041000788589859A8520E030E040E85FE30E9496
:10042000C70F88232CF481E090E09E838D833FC02A
:100430006F81788589859A8520E03FEF4FE757E403
:100440000E94670F18164CF56B857C858D859E85FF
:1004500020E030E040E251E40E94C10DDC01CB011C
:10046000BC01CD010E94EB0BDC01CB019E838D838F
:100470000FC080E991E09C838B838B819C810197E5
:10048000F1F79C838B838D819E8101979E838D8361
:100490008D819E81009769F714C06F817885898569
:1004A0009A850E94EB0BDC01CB019E838D838D81AD
:1004B0009E819A83898389819A810197F1F79A8332
:1004C00089830E94200190936302809362028F854A
:1004D00098890196988B8F872F85388989899A8981
:1004E000281739070CF47BCF62960FB6F894DEBF5D
:1004F0000FBECDBFCF91DF910895DF93CF93CDB7DE
:10050000DEB7E4E2F0E08FEF8083EAE0F1E08FEF26
:100510008083E5E2F0E01082EBE0F1E08AE08083A6
:10052000CF91DF910895DF93CF93CDB7DEB7EBE0A6
:10053000F1E08081803809F43EC0EBE0F1E0808199
:10054000803229F4EBE0F1E080E8808334C0EBE016
:10055000F1E08081883029F4EBE0F1E080E28083F3
:100560002AC0EBE0F1E080818A3029F4EBE0F1E091
:1005700088E0808320C0EBE0F1E08081823029F4C4
:10058000EBE0F1E08AE0808316C0EBE0F1E08081EF
:10059000882389F4E5E2F0E08081883041F4EBE0E3
:1005A000F1E082E08083E5E2F0E0108204C0E5E261
:1005B000F0E088E08083CF91DF910895DF93CF93BF
:1005C000CDB7DEB7EBE0F1E08081803829F4EBE0D5
:1005D000F1E080E2808339C0EBE0F1E0808180329D
:1005E00029F4EBE0F1E088E080832FC0EBE0F1E05C
:1005F0008081883029F4EBE0F1E08AE0808325C037
:10060000EBE0F1E080818A3029F4EBE0F1E082E078
:1006100080831BC0EBE0F1E08081823041F4EBE0AD
:10062000F1E01082E5E2F0E088E080830EC0EBE0CC
:10063000F1E08081882349F4E5E2F0E080818830B0
:1006400021F4E5E2F0E082E08083CF91DF9108952C
:10065000DF93CF93CDB7DEB764970FB6F894DEBFC4
:100660000FBECDBF82E092E09C8B8B8B82E192E04B
:100670009A8B898B0E94950080E80E9467068B897F
:100680009C890E94900780EC0E94670689899A895C
:100690000E949007188A1F8677C080E090E0AAE742
:1006A000B4E48B879C87AD87BE876B857C858D8501
:1006B0009E8520E030E04AE755E40E94C10DDC0150
:1006C000CB018F839887A987BA876F8178858985C1
:1006D0009A8520E030E040E85FE30E94C70F88235E
:1006E0002CF481E090E09E838D833FC06F817885FC
:1006F00089859A8520E03FEF4FE757E40E94670F16
:1007000018164CF56B857C858D859E8520E030E044
:1007100040E251E40E94C10DDC01CB01BC01CD01DE
:100720000E94EB0BDC01CB019E838D830FC080E91F
:1007300091E09C838B838B819C810197F1F79C8353
:100740008B838D819E8101979E838D838D819E8178
:10075000009769F714C06F81788589859A850E9412
:10076000EB0BDC01CB019E838D838D819E819A836F
:10077000898389819A810197F1F79A8389838F858B
:1007800098890196988B8F878F85988983309105FA
:100790000CF483CF0E94950064960FB6F894DEBFE8
:1007A0000FBECDBFCF91DF910895CDB7DEB7AC9727
:1007B000DEBFCDBF0E94D0070E947D02EAE7F0E0D5
:1007C00087E88083ECE7F0E080E480831C861B866A
:1007D0001A86198680E292E098878F8380E492E0FF
:1007E0009E838D838F8198859C838B838D819E8151
:1007F0009A8389832F8138858B859C85820F931FEF
:100800009C838B832D813E8189859A85820F931FDE
:100810009A838983CE010D962B813C814F81588527
:10082000B9010E94C200CE014D9629813A814D81C5
:100830005E81B9010E94C20080E80E946706CE0175
:100840000D960E94900780EC0E946706CE014D969F
:100850000E9490078F8198850E949F0001979C01BC
:100860008B859C858217930760F480916402909138
:100870006502009731F48B859C8501969C878B8758
:1008800008C08091640290916502009711F41C8663
:100890001B868D819E810E949F0001979C01898506
:1008A0009A858217930760F48091640290916502A3
:1008B000009731F489859A8501969A87898708C0BF
:1008C0008091640290916502009711F41A8619864E
:1008D00080910002909101020E94E0010E94950027
:1008E00089CFDF93CF93CDB7DEB769970FB6F89472
:1008F000DEBF0FBECDBF898FE2E0F1E080818F7E49
:100900008083898D88232CF4E2E0F1E0808180618E
:100910008083E2E0F1E08081877F8083898D882F6A
:1009200090E080749070009729F0E2E0F1E080811F
:1009300088608083EEE2F0E08081877F8083898D0C
:10094000882F90E080729070009729F0EEE2F0E03E
:10095000808188608083E4E3F0E080818F7D808304
:10096000898D882F90E080719070009729F0E4E3E2
:10097000F0E0808180628083E2E0F1E08081806449
:10098000808380E090E0A0E8BFE38D8B9E8BAF8BEF
:10099000B88F6D897E898F89988D2BEA3AEA4AEA69
:1009A00050E40E94C10DDC01CB01898B9A8BAB8B8B
:1009B000BC8B69897A898B899C8920E030E040E88A
:1009C0005FE30E94C70F88231CF481E0888B91C0ED
:1009D00069897A898B899C8920E030E04FE753E46C
:1009E0000E94670F18160CF07BC06D897E898F8975
:1009F000988D20E030E04AE754E40E94BB0EDC0111
:100A0000CB018C879D87AE87BF876C857D858E8562
:100A10009F8520E030E04AE755E40E94C10DDC01EB
:100A2000CB0188879987AA87BB87688579858A855E
:100A30009B8520E030E040E85FE30E94C70F8823F9
:100A40002CF481E090E09F838E833FC06885798598
:100A50008A859B8520E03FEF4FE757E40E94670FB0
:100A600018164CF56C857D858E859F8520E030E0DD
:100A700040E251E40E94C10DDC01CB01BC01CD017B
:100A80000E94EB0BDC01CB019F838E830FC080E9BA
:100A900091E09D838C838C819D810197F1F79D83EB
:100AA0008C838E819F8101979F838E838E819F810E
:100AB000009769F724C0688579858A859B850E949F
:100AC000EB0BDC01CB019F838E838E819F819B8307
:100AD0008A838A819B810197F1F79B838A830FC068
:100AE00069897A898B899C890E94EB0BDC01CB0197
:100AF000888B8889898389818A95F1F78983E2E0E7
:100B0000F1E080818F7B808369960FB6F894DEBF19
:100B10000FBECDBFCF91DF910895DF93CF93CDB7B7
:100B2000DEB769970FB6F894DEBF0FBECDBF898FD1
:100B3000898D0E947104898D8295807F0E94710445
:100B400080E090E0A8E4B2E48D8B9E8BAF8BB88FF1
:100B50006D897E898F89988D2BEA3AEA4AEA50E4BA
:100B60000E94C10DDC01CB01898B9A8BAB8BBC8BB6
:100B700069897A898B899C8920E030E040E85FE3CD
:100B80000E94C70F88231CF481E0888B91C069897B
:100B90007A898B899C8920E030E04FE753E40E94FA
:100BA000670F18160CF07BC06D897E898F89988D30
:100BB00020E030E04AE754E40E94BB0EDC01CB01A8
:100BC0008C879D87AE87BF876C857D858E859F8549
:100BD00020E030E04AE755E40E94C10DDC01CB0182
:100BE00088879987AA87BB87688579858A859B8549
:100BF00020E030E040E85FE30E94C70F88232CF438
:100C000081E090E09F838E833FC0688579858A85E7
:100C10009B8520E03FEF4FE757E40E94670F1816CF
:100C20004CF56C857D858E859F8520E030E040E227
:100C300051E40E94C10DDC01CB01BC01CD010E9439
:100C4000EB0BDC01CB019F838E830FC080E991E029
:100C50009D838C838C819D810197F1F79D838C838B
:100C60008E819F8101979F838E838E819F810097C4
:100C700069F724C0688579858A859B850E94EB0B7E
:100C8000DC01CB019F838E838E819F819B838A832E
:100C90008A819B810197F1F79B838A830FC06989C1
:100CA0007A898B899C890E94EB0BDC01CB01888BB4
:100CB0008889898389818A95F1F7898369960FB636
:100CC000F894DEBF0FBECDBFCF91DF910895DF93C3
:100CD000CF93CDB7DEB76B970FB6F894DEBF0FBEDC
:100CE000CDBF898FE2E0F1E080818F7D8083898DA7
:100CF0000E948D05898D282F30E03B8F2A8F8A8DA9
:100D00009B8D99230CF4D1C02A8D3B8D2430310565
:100D10004CF08A8D9B8D805890408038910508F06A
:100D2000C4C0C0C080E090E0AAEFB4E48D8B9E8B7D
:100D3000AF8BB88F6D897E898F89988D2BEA3AEABF
:100D40004AEA50E40E94C10DDC01CB01898B9A8BE9
:100D5000AB8BBC8B69897A898B899C8920E030E0D8
:100D600040E85FE30E94C70F88231CF481E0888B72
:100D700091C069897A898B899C8920E030E04FE7AE
:100D800053E40E94670F18160CF07BC06D897E89B2
:100D90008F89988D20E030E04AE754E40E94BB0E32
:100DA000DC01CB018C879D87AE87BF876C857D85F5
:100DB0008E859F8520E030E04AE755E40E94C10D12
:100DC000DC01CB0188879987AA87BB8768857985ED
:100DD0008A859B8520E030E040E85FE30E94C70FF2
:100DE00088232CF481E090E09F838E833FC0688548
:100DF00079858A859B8520E03FEF4FE757E40E9485
:100E0000670F18164CF56C857D858E859F8520E0D3
:100E100030E040E251E40E94C10DDC01CB01BC0195
:100E2000CD010E94EB0BDC01CB019F838E830FC0B1
:100E300080E991E09D838C838C819D810197F1F7FE
:100E40009D838C838E819F8101979F838E838E816A
:100E50009F81009769F724C0688579858A859B857D
:100E60000E94EB0BDC01CB019F838E838E819F81DF
:100E70009B838A838A819B810197F1F79B838A8375
:100E80000FC069897A898B899C890E94EB0BDC01F0
:100E9000CB01888B8889898389818A95F1F7898339
:100EA00080E8898F898D809359026B960FB6F894EC
:100EB000DEBF0FBECDBFCF91DF910895DF93CF93FB
:100EC00000D0CDB7DEB78983E2E0F1E080818062B7
:100ED000808389810E948D05809159028F5F809364
:100EE000590280915902282F30E03B832A838A815E
:100EF0009B818039910531F02A813B81203D31056C
:100F000021F008C080EC898302C080E88983898150
:100F10000E9467060F900F900F90CF91DF91089578
:100F2000DF93CF9300D00F92CDB7DEB79C838B8336
:100F30008B819C819A8389830AC0E981FA818081AF
:100F40000E945E0789819A8101969A838983E9814B
:100F5000FA818081882389F70F900F900F900F906E
:100F6000CF91DF910895DF93CF930F920F92CDB77A
:100F7000DEB7898303C080E20E945E0789818A838D
:100F80008A81882311F081E08A838A819981915036
:100F90009983882381F70F900F90CF91DF91089567
:100FA0000F931F93DF93CF93CDB7DEB7C456D040D6
:100FB0000FB6F894DEBF0FBECDBFE3E3F0E0808153
:100FC00080628083EDE2F0E0808188608083E1E0F0
:100FD000F1E0808188608083E1E0F1E080818061E0
:100FE0008083E1E0F1E0808180628083E1E0F1E0F4
:100FF000808180648083E2E0F1E080818F7B808368
:10100000E2E0F1E080818F7D8083FE01EF59FF4FA8
:1010100080E090E0A0E7B1E480839183A283B38372
:101020008E01035A1F4FFE01EF59FF4F60817181FE
:101030008281938120E030E04AE755E40E94C10DAF
:10104000DC01CB01F80180839183A283B383FE018D
:10105000E35AFF4F608171818281938120E030E00B
:1010600040E85FE30E94C70F882344F4FE01E55A7D
:10107000FF4F81E090E09183808364C0FE01E35ADA
:10108000FF4F608171818281938120E03FEF4FE7C4
:1010900057E40E94670F18160CF043C0FE01EF5989
:1010A000FF4F608171818281938120E030E040E2D6
:1010B00051E40E94C10DDC01CB018E01055A1F4F86
:1010C000BC01CD010E94EB0BDC01CB01F801918347
:1010D00080831FC0FE01E75AFF4F80E991E09183B2
:1010E0008083FE01E75AFF4F808191810197F1F7DC
:1010F000FE01E75AFF4F91838083DE01A55ABF4F5F
:10110000FE01E55AFF4F80819181019711969C93D2
:101110008E93FE01E55AFF4F808191810097D1F6B1
:1011200027C08E01055A1F4FFE01E35AFF4F608111
:101130007181828193810E94EB0BDC01CB01F8016C
:1011400091838083DE01A95ABF4FFE01E55AFF4F0C
:10115000808191818D939C93FE01E95AFF4F80819C
:1011600091810197F1F7FE01E95AFF4F9183808346
:1011700080E30E947104FE01ED5AFF4F83E393E385
:10118000A3E8B0E480839183A283B3838E01015BE3
:101190001F4FFE01ED5AFF4F608171818281938163
:1011A00020E030E04AE755E40E94C10DDC01CB01AC
:1011B000F80180839183A283B383FE01E15BFF4F3B
:1011C000608171818281938120E030E040E85FE3BB
:1011D0000E94C70F882344F4FE01E35BFF4F81E0C8
:1011E00090E09183808364C0FE01E15BFF4F6081EA
:1011F00071818281938120E03FEF4FE757E40E94A5
:10120000670F18160CF043C0FE01ED5AFF4F6081C6
:1012100071818281938120E030E040E251E40E94BC
:10122000C10DDC01CB018E01035B1F4FBC01CD0161
:101230000E94EB0BDC01CB01F801918380831FC07E
:10124000FE01E55BFF4F80E991E091838083FE0121
:10125000E55BFF4F808191810197F1F7FE01E55B2E
:10126000FF4F91838083DE01A35BBF4FFE01E35BF1
:10127000FF4F80819181019711969C938E93FE017F
:10128000E35BFF4F808191810097D1F627C08E01EB
:10129000035B1F4FFE01E15BFF4F60817181828123
:1012A00093810E94EB0BDC01CB01F80191838083D9
:1012B000DE01A75BBF4FFE01E35BFF4F80819181A1
:1012C0008D939C93FE01E75BFF4F80819181019795
:1012D000F1F7FE01E75BFF4F9183808380E30E947B
:1012E0007104FE01EB5BFF4F80E090E0A8ECB2E4FC
:1012F00080839183A283B3838E010F5B1F4FFE0116
:10130000EB5BFF4F60817181828193812BEA3AEA26
:101310004AEA50E40E94C10DDC01CB01F801808350
:101320009183A283B383FE01EF5BFF4F60817181E4
:101330008281938120E030E040E85FE30E94C70FA4
:10134000882334F481E0FE01E05CFF4F80839DC080
:10135000FE01EF5BFF4F608171818281938120E00C
:1013600030E04FE753E40E94670F18160CF07EC080
:10137000FE01EB5BFF4F608171818281938120E0F0
:1013800030E04AE754E40E94BB0EDC01CB018CAF95
:101390009DAFAEAFBFAF6CAD7DAD8EAD9FAD20E06C
:1013A00030E04AE755E40E94C10DDC01CB0188AF73
:1013B00099AFAAAFBBAF68AD79AD8AAD9BAD20E068
:1013C00030E040E85FE30E94C70F88232CF481E0FF
:1013D00090E09FAB8EAB3FC068AD79AD8AAD9BAD61
:1013E00020E03FEF4FE757E40E94670F18164CF5D7
:1013F0006CAD7DAD8EAD9FAD20E030E040E251E4BC
:101400000E94C10DDC01CB01BC01CD010E94EB0BA0
:10141000DC01CB019FAB8EAB0FC080E991E09DABAF
:101420008CAB8CA99DA90197F1F79DAB8CAB8EA9D4
:101430009FA901979FAB8EAB8EA99FA9009769F7D3
:101440002DC068AD79AD8AAD9BAD0E94EB0BDC0180
:10145000CB019FAB8EAB8EA99FA99BAB8AAB8AA910
:101460009BA90197F1F79BAB8AAB18C0FE01EF5B1C
:10147000FF4F60817181828193810E94EB0BDC01BF
:10148000CB01FE01E05CFF4F8083FE01E05CFF4F7B
:10149000808189AB89A98A95F1F789AB80E30E94A5
:1014A000710480E090E0A8E4B2E48DA79EA7AFA706
:1014B000B8AB6DA57EA58FA598A92BEA3AEA4AEAB2
:1014C00050E40E94C10DDC01CB0189A79AA7ABA70C
:1014D000BCA769A57AA58BA59CA520E030E040E8D3
:1014E0005FE30E94C70F88231CF481E088A791C0A6
:1014F00069A57AA58BA59CA520E030E04FE753E4D1
:101500000E94670F18160CF07BC06DA57EA58FA5F5
:1015100098A920E030E04AE754E40E94BB0EDC01C9
:10152000CB018CA39DA3AEA3BFA36CA17DA18EA173
:101530009FA120E030E04AE755E40E94C10DDC01A4
:10154000CB0188A399A3AAA3BBA368A179A18AA16F
:101550009BA120E030E040E85FE30E94C70F8823B2
:101560002CF481E090E09F8F8E8F3FC068A179A11D
:101570008AA19BA120E03FEF4FE757E40E94670F4D
:1015800018164CF56CA17DA18EA19FA120E030E042
:1015900040E251E40E94C10DDC01CB01BC01CD0150
:1015A0000E94EB0BDC01CB019F8F8E8F0FC080E977
:1015B00091E09D8F8C8F8C8D9D8D0197F1F79D8F84
:1015C0008C8F8E8D9F8D01979F8F8E8F8E8D9F8D8F
:1015D000009769F724C068A179A18AA19BA10E9404
:1015E000EB0BDC01CB019F8F8E8F8E8D9F8D9B8FA0
:1015F0008A8F8A8D9B8D0197F1F79B8F8A8F0FC001
:1016000069A57AA58BA59CA50E94EB0BDC01CB01FB
:1016100088A788A5898F898D8A95F1F7898F80E2BF
:101620000E94710480E090E0A8E4B2E48D8B9E8B70
:10163000AF8BB88F6D897E898F89988D2BEA3AEAB6
:101640004AEA50E40E94C10DDC01CB01898B9A8BE0
:10165000AB8BBC8B69897A898B899C8920E030E0CF
:1016600040E85FE30E94C70F88231CF481E0888B69
:1016700091C069897A898B899C8920E030E04FE7A5
:1016800053E40E94670F18160CF07BC06D897E89A9
:101690008F89988D20E030E04AE754E40E94BB0E29
:1016A000DC01CB018C879D87AE87BF876C857D85EC
:1016B0008E859F8520E030E04AE755E40E94C10D09
:1016C000DC01CB0188879987AA87BB8768857985E4
:1016D0008A859B8520E030E040E85FE30E94C70FE9
:1016E00088232CF481E090E09F838E833FC068853F
:1016F00079858A859B8520E03FEF4FE757E40E947C
:10170000670F18164CF56C857D858E859F8520E0CA
:1017100030E040E251E40E94C10DDC01CB01BC018C
:10172000CD010E94EB0BDC01CB019F838E830FC0A8
:1017300080E991E09D838C838C819D810197F1F7F5
:101740009D838C838E819F8101979F838E838E8161
:101750009F81009769F724C0688579858A859B8574
:101760000E94EB0BDC01CB019F838E838E819F81D6
:101770009B838A838A819B810197F1F79B838A836C
:101780000FC069897A898B899C890E94EB0BDC01E7
:10179000CB01888B8889898389818A95F1F7898330
:1017A00088E20E94670688E00E94670681E00E9446
:1017B000670686E00E9467068CE00E946706CC59A7
:1017C000DF4F0FB6F894DEBF0FBECDBFCF91DF91D4
:1017D0001F910F910895EF92FF920F931F937B013A
:1017E0008C0120E030E040E05FE40E94970F882306
:1017F0008CF0C801B70120E030E040E05FE40E94D7
:10180000630D0E94F70F9B01AC0120503040404017
:10181000504806C0C801B7010E94F70F9B01AC01F8
:10182000B901CA011F910F91FF90EF900895A0E0B8
:10183000B0E0EDE1FCE00C94F111DC012B01FA01C8
:101840009C91923008F439C1EB018881823008F410
:1018500033C1943069F4843009F02FC111969C9102
:1018600011978981981709F428C1AAE5B2E025C12A
:10187000843009F421C18230A9F4923009F01DC1ED
:101880009A01AD0188E0EA010990AE01E9010992EF
:101890009E018150C1F7E201898111969C918923B3
:1018A000818308C1923009F407C112962D903C90B3
:1018B0001397EB018A819B811496AD90BD90CD90DA
:1018C000DC901797EC80FD800E811F819101281B11
:1018D000390BB90137FF04C066277727621B730BEA
:1018E000603271050CF061C0121613066CF53701F9
:1018F0004801062E04C096948794779467940A94BE
:10190000D2F721E030E040E050E004C0220F331F66
:10191000441F551F6A95D2F7215030404040504037
:101920002E213F2140235123211531054105510529
:1019300021F021E030E040E050E079018A01E62822
:10194000F728082919293CC0232BD1F1260E371E70
:1019500035014601062E04C09694879477946794C7
:101960000A94D2F721E030E040E050E004C0220FBA
:10197000331F441F551F6A95D2F721503040404015
:1019800050402A213B214C215D2121153105410583
:10199000510521F021E030E040E050E059016A01BA
:1019A000A628B728C828D9280BC0821593052CF083
:1019B0001C01AA24BB24650103C0EE24FF24870177
:1019C00011969C91D20111968C91981709F445C0FB
:1019D000992339F0A80197012A193B094C095D099F
:1019E00006C0A60195012E193F09400B510B57FD6A
:1019F00008C0118233822282248335834683578331
:101A00001DC081E081833382228288279927DC01EF
:101A1000821B930BA40BB50B84839583A683B7839A
:101A20000DC0220F331F441F551F24833583468367
:101A300057838281938101979383828324813581A7
:101A400046815781DA01C9010197A109B1098F5F68
:101A50009F4FAF4FBF4328F30BC091833382228245
:101A6000EA0CFB1C0C1D1D1DE482F5820683178306
:101A700083E08083248135814681578157FF1AC0D6
:101A8000C901AA2797FDA095BA2F81709070A07008
:101A9000B0705695479537952795822B932BA42B9D
:101AA000B52B84839583A683B78382819381019626
:101AB00093838283DF0101C0D201CD01CDB7DEB7B0
:101AC000E2E10C940D12A0E2B0E0E9E6FDE00C9436
:101AD000FD1169837A838B839C832D833E834F839F
:101AE0005887E9E0EE2EF12CEC0EFD1ECE0101969A
:101AF000B7010E9420118E010F5E1F4FCE01059687
:101B0000B8010E9420118A8991E089278A8BC70138
:101B1000B801AE01475E5F4F0E94170C0E944B1048
:101B2000A096E6E00C941912A0E2B0E0EAE9FDE02C
:101B30000C94FD1169837A838B839C832D833E8370
:101B40004F835887F9E0EF2EF12CEC0EFD1ECE01ED
:101B50000196B7010E9420118E010F5E1F4FCE012A
:101B60000596B8010E942011C701B801AE01475E79
:101B70005F4F0E94170C0E944B10A096E6E00C9459
:101B80001912A0E2B0E0E7ECFDE00C94F1116983DA
:101B90007A838B839C832D833E834F835887CE012A
:101BA0000196BE01675F7F4F0E942011CE0105960E
:101BB000BE016F5E7F4F0E9420119985923088F0A0
:101BC00089898230C8F0943019F4823051F404C00D
:101BD000843029F4923081F48AE592E0C6C09230D4
:101BE00049F420E09A858A89981321E02A87CE015A
:101BF0000996BBC0823049F420E09A858A899813FF
:101C000021E02A8BCE014196B0C02D843E844F84C2
:101C100058886D887E888F88988CEE24FF248701F1
:101C2000AA24BB24650140E050E060E070E0E0E001
:101C3000F0E0C10181709070892BE9F0E60CF71C8F
:101C4000081D191D9A01AB012A0D3B1D4C1D5D1D80
:101C500080E090E0A0E0B0E0E614F7040805190584
:101C600020F481E090E0A0E0B0E0BA01A901480FC3
:101C7000591F6A1F7B1FAA0CBB1CCC1CDD1C97FEC6
:101C800008C081E090E0A0E0B0E0A82AB92ACA2A02
:101C9000DB2A3196E032F10549F0660C771C881C8E
:101CA000991C5694479437942794C3CFFA85EA89B0
:101CB0002B893C898B859C85280F391F2E5F3F4FD0
:101CC00017C0CA0181709070892B61F01695079535
:101CD000F794E79480E090E0A0E0B0E8E82AF92AE1
:101CE0000A2B1B2B76956795579547952F5F3F4F8E
:101CF00077FDE7CF0CC0440F551F661F771F17FDF8
:101D00004160EE0CFF1C001F111F2150304040307D
:101D100090E0590790E0690790E4790760F32B8F12
:101D20003C8FDB01CA018F779070A070B070803457
:101D30009105A105B10561F447FD0AC0E114F10464
:101D40000105110529F0405C5F4F6F4F7F4F4078D0
:101D50001A8EFE1711F081E08A8F4D8F5E8F6F8F84
:101D600078A383E0898FCE0149960E944B10A096FC
:101D7000E2E10C940D12A8E1B0E0E1ECFEE00C947D
:101D8000F91169837A838B839C832D833E834F83F0
:101D90005887B9E0EB2EF12CEC0EFD1ECE0101961A
:101DA000B7010E9420118E010F5E1F4FCE010596D4
:101DB000B8010E9420112985223008F47EC039899B
:101DC000323010F4B8017CC08A859A8989278A87C5
:101DD000243011F0223031F4231709F06EC06AE587
:101DE00072E06EC0343039F41D861E861F86188A54
:101DF0001C861B8604C0323021F484E08987B70139
:101E00005FC02B853C858B899C89281B390B3C87BF
:101E10002B87ED84FE840F851889AD88BE88CF8816
:101E2000D88CEA14FB040C051D0540F4EE0CFF1CD5
:101E3000001F111F215030403C872B8720E030E0ED
:101E400040E050E080E090E0A0E0B0E460E070E0CE
:101E5000EA14FB040C051D0540F0282B392B4A2BF6
:101E60005B2BEA18FB080C091D09B695A7959795F9
:101E70008795EE0CFF1C001F111F6F5F7F4F6F31A6
:101E8000710531F7DA01C9018F779070A070B070D9
:101E900080349105A105B10561F427FD0AC0E11464
:101EA000F1040105110529F0205C3F4F4F4F5F4FB2
:101EB00020782D873E874F87588BBE01675F7F4F05
:101EC000CB010E944B106896EAE00C941512A8E131
:101ED000B0E0EDE6FFE00C94FD1169837A838B831B
:101EE0009C832D833E834F83588789E0E82EF12C15
:101EF000EC0EFD1ECE010196B7010E9420118E014D
:101F00000F5E1F4FCE010596B8010E9420118985F2
:101F1000823040F08989823028F0C701B8010E94E0
:101F2000981101C08FEF6896E6E00C941912A8E1B1
:101F3000B0E0EDE9FFE00C94FD1169837A838B83B7
:101F40009C832D833E834F83588789E0E82EF12CB4
:101F5000EC0EFD1ECE010196B7010E9420118E01EC
:101F60000F5E1F4FCE010596B8010E942011898592
:101F7000823040F08989823028F0C701B8010E9480
:101F8000981101C08FEF6896E6E00C941912A8E151
:101F9000B0E0EDECFFE00C94FD1169837A838B8354
:101FA0009C832D833E834F83588789E0E82EF12C54
:101FB000EC0EFD1ECE010196B7010E9420118E018C
:101FC0000F5E1F4FCE010596B8010E942011898532
:101FD000823040F08989823028F0C701B8010E9420
:101FE000981101C081E06896E6E00C941912ACE00B
:101FF000B0E0EDEFFFE00C94011269837A838B83EC
:102000009C83CE010196BE016B5F7F4F0E94201121
:102010008D81823061F1823050F1843021F48E81E3
:10202000882351F12EC02F81388537FD20C06E8165
:102030002F3131051CF06623F9F023C08EE190E0CA
:10204000821B930B29853A854B855C8504C0569588
:102050004795379527958A95D2F76623B1F0509525
:102060004095309521953F4F4F4F5F4F0EC020E078
:1020700030E040E050E009C02FEF3FEF4FEF5FE767
:1020800004C020E030E040E050E8B901CA012C96DD
:10209000E2E00C941D12DF92EF92FF920F931F93D8
:1020A000FC01E480F58006811781D1808081823037
:1020B00048F480E090E0A0E1B0E0E82AF92A0A2B99
:1020C0001B2BA5C0843009F49FC0823021F4EE247C
:1020D000FF24870105C0E114F1040105110519F47D
:1020E000E0E0F0E096C0628173819FEF623879078B
:1020F0000CF05BC022E83FEF261B370B2A3131057D
:102100002CF020E030E040E050E02AC0B801A70108
:10211000022E04C076956795579547950A94D2F795
:1021200081E090E0A0E0B0E004C0880F991FAA1FF2
:10213000BB1F2A95D2F70197A109B1098E219F21D2
:10214000A023B1230097A105B10521F081E090E023
:10215000A0E0B0E09A01AB01282B392B4A2B5B2B76
:10216000DA01C9018F779070A070B070803491054A
:10217000A105B10539F427FF09C0205C3F4F4F4F3F
:102180005F4F04C0215C3F4F4F4F5F4FE0E0F0E0F6
:102190002030A0E03A07A0E04A07A0E45A0710F078
:1021A000E1E0F0E079018A0127C06038710564F54B
:1021B000FB01E158FF4FD801C7018F779070A070E5
:1021C000B07080349105A105B10539F4E7FE0DC06A
:1021D00080E490E0A0E0B0E004C08FE390E0A0E0F5
:1021E000B0E0E80EF91E0A1F1B1F17FF05C0169569
:1021F0000795F794E794319687E016950795F7943D
:10220000E7948A95D1F705C0EE24FF248701EFEF0C
:10221000F0E06E2F679566276795902F9F77D7948C
:10222000DD24D7948E2F8695492F462B582F5D2974
:10223000B701CA011F910F91FF90EF90DF900895B1
:10224000FC01DB01408151812281622F6F7770E0B8
:10225000221F2227221F9381892F880F822B282F4C
:1022600030E0991F9927991F11969C93119721157A
:102270003105A9F5411551056105710511F482E09B
:1022800037C082E89FEF13969C938E9312979A0122
:10229000AB0167E0220F331F441F551F6A95D1F72A
:1022A00083E08C930DC0220F331F441F551F1296DD
:1022B0008D919C911397019713969C938E931297EF
:1022C000203080E0380780E0480780E4580758F362
:1022D00014962D933D934D935C93179708952F3F3C
:1022E000310579F4411551056105710519F484E052
:1022F0008C93089564FF03C081E08C9312C01C92FC
:1023000010C02F57304013963C932E93129783E0C2
:102310008C9387E0440F551F661F771F8A95D1F76E
:10232000706414964D935D936D937C931797089505
:102330001F93DC01FB019C91923008F447C080811F
:10234000823008F443C0943051F411961C918430CB
:1023500099F58181682F70E0611B71093FC084305D
:1023600021F0923031F48230B9F18181882389F1F2
:102370002DC011961C9111978230F1F081811817B0
:10238000D9F412962D913C911397828193818217F3
:10239000930794F028173907BCF014968D919D91FE
:1023A0000D90BC91A02D248135814681578128173D
:1023B00039074A075B0718F4112341F00AC0821756
:1023C0009307A407B50740F4112319F061E070E00A
:1023D00005C06FEF7FEF02C060E070E0CB011F919E
:1023E00008952F923F924F925F926F927F928F92B9
:1023F0009F92AF92BF92CF92DF92EF92FF920F9394
:102400001F93CF93DF93CDB7DEB7CA1BDB0B0FB69D
:10241000F894DEBF0FBECDBF19942A88398848884A
:102420005F846E847D848C849B84AA84B984C884F0
:10243000DF80EE80FD800C811B81AA81B981CE0FE7
:10244000D11D0FB6F894DEBF0FBECDBFED010895CC
:04245000F894FFCF2E
:102454000400546869732046656174757265204987
:1024640073004E6F7420417661696C61626C650023
:10247400546869732061206D6573736167652074A6
:102484006F2074686520726561646572202D200078
:102494002D2068656C6C6F202D2068656C6C6F2036
:1024A4002D2068656C6C6F20008000000000000027
:0224B400000026
:00000001FF
