:100000000C9472000C948B000C948B000C948B005D
:100010000C948B000C948B000C948B000C948B0034
:100020000C948B000C948B000C948B000C948B0024
:100030000C948B000C948B000C948B000C948B0014
:100040000C948B000C948B000C948B000C948B0004
:100050000C948B000C948B000C948B000C948B00F4
:100060000C948B000C948B000C948B000C948B00E4
:100070000C948B000C948B000C948B000C948B00D4
:100080000C948B000C948B000C948B000C948B00C4
:100090000C948B000C948B000C948B000C948B00B4
:1000A0000C948B000C948B000C948B000C948B00A4
:1000B0000C948B000C948B000C948B000C948B0094
:1000C0000C948B000C948B000C948B000C948B0084
:1000D0000C948B000C948B000C948B000C948B0074
:1000E0000C948B0011241FBECFEFD1E2DEBFCDBF39
:1000F00000E00CBF12E0A0E0B2E0E2E9F1E000E0D5
:100100000BBF02C007900D92A030B107D9F70E9433
:100110008D000C94C7000C9400008FEF80930A01AF
:1001200084B980E880930B0180E197E220E931E017
:10013000F9013197F1F70197D9F750E848E020E944
:1001400031E080910B01833038F080910B0186956E
:10015000869580930B0113C080910B01823021F4AE
:1001600010920B0145B90BC085B1833028F085B1E1
:100170008695869585B903C015B850930B0180E12B
:1001800097E2F9013197F1F70197D9F2FACFF89494
:02019000FFCF9F
:00000001FF
