:020000020000FC
:100000000FEF00935D0001E200935E0000E00F93AC
:1000100002E80F9302E00F9300E00F930E941E008E
:10002000EF91FF910F910F91FF93EF930E94390091
:10003000EF91FF9180930E020C941C00EF93FF93BD
:10004000DF93CF93AF93BF937F93D0915E00C09126
:100050005D00FE85ED85BC85AB8575917D9377232D
:10006000E1F77F91BF91AF91CF91DF91FF91EF9138
:1000700008957F938827719183957723E1F77F9186
:10008000089548656C6C6F2C20776F726C6421004A
:00000001FF
