:020000020000FC
:020000003AC004
:1000740090C10E9450030E9443030E9421010FE893
:1000840000937A0000E400937C000FEF04B900931E
:100094000A010AE000930B0102E00093510302E01D
:1000A4000093500302E00093530306E600935203C7
:1000B40040E2882778940E94430302E00F9302E011
:1000C4000F93009150030F93009151030F930EE28D
:1000D4000F9303E00F930E9488010F910F910F91EA
:1000E4000F910F910F9102E00F9306E60F93009189
:1000F40052030F93009153030F930FE30F9303E005
:100104000F930E9488010F910F910F910F910F91FE
:100114000F910E9464010E94AC018823E8E5F3E09A
:1001240009F080838081803131F40E94E7008827C0
:1001340080830C94B500813041F485E0481B0E9413
:10014400ED01882780830C94B500883041F485E064
:10015400480F0E941902882780830C94B5008430CC
:1001640011F0823041F10091500303950093500344
:1001740000915203039500935203B0915103A0914F
:1001840050032C91203031F402E00093510302E03B
:1001940000935003B0915303A09152032C9120304B
:1001A40031F402E00093530306E6009352030C94E7
:1001B4005D000C94DB000E94C301882309F0808356
:1001C4008081843081F20C94DD000F93EF93FF93D0
:1001D4008F938827E8E5F3E080830E94430300E0DF
:1001E4000F930F930E941F030F910F9102E00F933F
:1001F4000AEC0F930E9406030F910F9101E00F93F5
:1002040000E00F930E941F030F910F9102E00F93E0
:100214000CEF0F930E9406030F910F910E94AC0103
:100224000E94AC010E94AC010E94AC010E94AC018E
:100234000E94AC018F91FF91EF910F9108950F935C
:1002440002E00F9302E00F9304E00F9306E90F938B
:100254000E94F9030F910F910F910F9102E00F93F8
:1002640006E60F9304E00F930CEC0F930E94F9033E
:100274000F910F910F910F9102E0009355030F938B
:100284000AEC009354030F9304E00F930EEE0F93C4
:100294000E94F9030F910F910F910F9102E00093C7
:1002A40057030F930CEF009356030F9304E00F933F
:1002B4000EEF0F930E94F9030F910F910F910F917D
:1002C4000F9108950F930E94430300E00F930F933F
:1002D4000E941F030F910F9103E00F930EE20F93FF
:1002E4000E9406030F910F9101E00F9300E00F931A
:1002F4000E941F030F910F9103E00F930FE30F93DD
:100304000E9406030F910F910F910895BF93AF932D
:10031400DF93CF93FF93EF930F931F93FEB7EDB744
:100324001127D685C785B485A5850881003011F4C9
:10033400D189C08909910D9313951031B1F700E06B
:100344000C931F910F91EF91FF91CF91DF91AF919A
:10035400BF9108955F936F934F93882700005FEFD9
:10036400882311F40E94C30100006FEF00006A9516
:10037400E9F75A95C9F74A9589F74F916F915F91BB
:1003840008950F9300917A00006400937A000F910E
:1003940008950F931F9300917800109179000695AA
:1003A4000695110F110F110F110F110F110F012BC2
:1003B4000C3081E068F0003382E050F00F3584E0C7
:1003C40038F00A3888E020F0053C80E108F080E04D
:1003D4001F910F9118950F9300910B01003829F18B
:1003E4000030A1F0023029F40AE000930B010C94D0
:1003F40017020A3029F408E000930B010C94170249
:10040400083020F0000F000F00930B0105B10830F5
:1004140039F400E005B902E000930B010C941702D3
:10042400023019F4000F000F05B90F9108950F93CE
:1004340000910B01003029F1003841F0003259F0ED
:10044400083071F00A3089F00230A1F000E2009324
:100454000B010C94490208E000930B010C9449022F
:100464000AE000930B010C94490202E000930B0193
:100474000C94490200E000930B0108E005B90C94C8
:10048400490205B1023019F00695069505B90F9198
:1004940008955468697320697320746865206D65D4
:1004A4007373616765206F6E207468652066697276
:1004B4007374206C696E652E2048657265206974BA
:1004C40020676F65732E20002D2D2D2062757920F5
:1004D4002D2D2D206D6F7265202D2D2D20706F70A8
:1004E400202D2D2D2062757920004665617475726A
:1004F4006520556E6465722000004D61696E7465F7
:100504006E616E6365000C9412040F932F933F93F6
:10051400009132000F7D24FD0062009334000091AD
:100524002C00077F25FD086000932E000091000138
:10053400077F26FD086000930201009100010F7EF1
:1005440027FD006100930201009100010064009303
:10055400020131E00E94D503009100010F7B00935A
:1005640002013F912F910F9108952F933F930F9381
:10057400DF93CF93DEB7CDB729850E94870232E39C
:100584000E94D50322950E94870232E30E94D5037C
:10059400CF91DF910F913F912F9108950F933F9346
:1005A4002F93DF93CF93DEB7CDB729850091000158
:1005B4000F7D009302012F930E94B7022F912430E4
:1005C40018F432E00E94DF03CF91DF912F913F9125
:1005D4000F9108950F932F93DF93CF93DEB7CDB789
:1005E4002885009100010062009302012F930E946C
:1005F400B7022F9100910102039500930102CF915C
:10060400DF912F910F9108950F931F93DF93CF9351
:10061400FF93EF93DEB7CDB7FB85EA8511911030D8
:1006240029F01F930E94EC021F91F8CFEF91FF91E4
:10063400CF91DF911F910F9108950F931F93DF9333
:10064400CF93DEB7CDB70885198511301CF011E0C2
:100654000C942F030F300CF00FE010930002009362
:100664000102113019F410EC0C94390310E8010F55
:100674000F930E94D0020F91CF91DF911F910F91A0
:1006840008950F9301E00F930E94D0020F91002769
:1006940000930002009301020F9108950F932F938A
:1006A4003F930091330000620093330000913200C5
:1006B4000F7D0093340000912D00086000932D00FD
:1006C40000912C00077F00932E0000910101086027
:1006D4000093010100910001077F00930201009142
:1006E4000101006100930101009100010F7E00935C
:1006F40002010091010100620093010100910001D7
:100704000F7D009302010091010100640093010137
:10071400009100010F7B009302013FE00E94DF0380
:1007240035E00E94DF0320E30E94870235E00E9447
:10073400DF0320E30E94870257E03FE00E94DF03CB
:100744005A95D9F720E30E94870232E30E94D50329
:1007540020E20E94870232E30E94D50308E20F934D
:100764000E94D0020F9108E00F930E94D0020F91D3
:1007740001E00F930E94D0020F9132E00E94DF0348
:1007840006E00F930E94D0020F910CE00F930E9499
:10079400D0020F91002700930002009301023F91C1
:1007A4002F910F9108950F933F9305E00A95F1F768
:1007B4003A95D9F73F910F9108950F931F933F9363
:1007C400DF93CF930DEF309F012D0295007FD02F43
:1007D400002D0295102F007F1F70C02FD12B219761
:1007E400F1F7CF91DF913F911F910F9108950F93EE
:1007F400FF93EF93BF93AF93DF93CF93DEB7CDB760
:10080400EB85FC85AD85BE85059100300D93E1F740
:10081400CF91DF91AF91BF91EF91FF910F91089527
:00000001FF
