:020000020000FC
:040000000C943C0020
:040050000C94750097
:100074000C9454000FE800937A0000E400937C0091
:100084000E9465000FEF0093240000930A01789406
:1000940000EA10910B01102710930B0140E30E941A
:1000A4008300F6CF0F931F9300917800109179008D
:1000B400133030F40AE01091250010271093250026
:1000C4001F910F9118950F9300E000938500009302
:1000D40084000093800003E00093810001E000931A
:1000E4006F000F9108950F9300917A0000640093BC
:1000F4007A000F91189500917A00006400937A00B9
:1001040008955F936F9300005FEF00006FEF0000AE
:100114006A95E9F75A95C9F74A95A9F76F915F91DE
:0201240008953C
:00000001FF
