:100000000C9472000C948B000C948B000C948B005D
:100010000C948B000C948B000C948B000C948B0034
:100020000C948B000C948B000C948B000C948B0024
:100030000C948B000C948B000C948B000C948B0014
:100040000C948B000C948B000C948B000C948B0004
:100050000C948B000C948B000C948B000C948B00F4
:100060000C948B000C948B000C948B000C948B00E4
:100070000C948B000C948B000C948B000C948B00D4
:100080000C948B000C948B000C948B000C948B00C4
:100090000C948B000C948B000C948B000C948B00B4
:1000A0000C948B000C948B000C948B000C948B00A4
:1000B0000C948B000C948B000C948B000C948B0094
:1000C0000C948B000C948B000C948B000C948B0084
:1000D0000C948B000C948B000C948B000C948B0074
:1000E0000C948B0011241FBECFEFD1E2DEBFCDBF39
:1000F00000E00CBF12E0A0E0B2E0E4EAF3E000E0D0
:100100000BBF02C007900D92A230B107D9F70E9431
:10011000B4010C94D0010C940000982F809102013E
:100120008F7E8093020197FF05C08091020180615C
:100130008093020180910201877F8093020196FFE4
:1001400005C080910201886080930201739895FD3B
:10015000739AA59894FDA59A80910201806480937A
:10016000020185E08A95F1F7809102018F7B8093EF
:10017000020108951F93182F0E948D00812F8295F0
:10018000807F0E948D0088EC90E00197F1F71F912D
:1001900008951F93182F809102018F7D8093020193
:1001A000812F0E94BA00143018F0103840F005C0BA
:1001B00080E49FE10197F1F710E8109300021F918E
:1001C0000895909102019062909302010E94BA00FA
:1001D000809100028F5F80930002803921F0803D82
:1001E00029F480E801C080EC0E94C9000895CF93F3
:1001F000DF93EC0103C00E94E100219688818823EF
:10020000D1F7DF91CF9108951F93182F04C080E29A
:100210000E94E10011501123D1F71F9108950F930F
:100220001F939D9A6B9AE1E0F1E080818860808362
:10023000808180618083808180628083808180640E
:100240008083E2E0F1E080818F7B808380818F7DFD
:10025000808380E69AEE0197F1F780E30E948D009B
:1002600080E190E40197F1F780E30E948D0080E93E
:1002700091E00197F1F780E30E948D0008EC10E017
:10028000C8010197F1F780E20E948D00C801019733
:10029000F1F788E20E94C90088E00E94C90081E06D
:1002A0000E94C90086E00E94C9008CE00E94C9003B
:1002B0001F910F9108959C012F73307080FD02C033
:1002C00090E001C090E821FD906222FD986023FD3E
:1002D000926024FD02C080E001C088E025FD8260BC
:1002E00085B990930B01089587E880937A0080E4A4
:1002F00080937C0080917A00806480937A00809162
:100300007A0086FDFCCF0895309178002091790025
:10031000922F80E0830F911D23E0893E920718F011
:1003200020E030E01BC08233910518F421E030E07A
:1003300015C0833C910518F422E030E00FC021E0A5
:100340008C37920718F424E030E008C08B529240BA
:1003500018F020E130E002C028E030E0C901089543
:1003600015B810920B010895CF93DF938FEF809310
:100370000A0184B9C0E9D1E00E9474010E9484019D
:1003800018161906CCF70E945B0180E197E2FE0186
:100390003197F1F70197D9F715B810920B01ECCF0F
:0403A000F894FFCFFF
:0203A4008000D7
:00000001FF
