:020000020000FC
:1000000007E800937A0000E400937C000FEF009370
:10001000240000930A0100240E9450000E941D0049
:100020008823E1F3082E0E94500043E60E9444001A
:1000300040E0042E0E945000F1CF00917A0000644D
:1000400000937A0000917A000074E1F70091780043
:100050001091790006950695110F110F110F110FD0
:10006000110F110F012B0C3081E068F0003382E09A
:1000700050F00F3584E038F00A3888E020F0053C75
:1000800080E108F080E0089500005FEF00006FEF6E
:1000900000006A95E9F75A95C9F74A95A9F70895B6
:1000A00011E0222711242224312F30213F93239560
:1000B000110F2630C9F7222712E04F91403009F086
:1000C000112A110F110F4F91403009F0112A12E03F
:1000D0004F91403009F0212A110F110F2395243040
:1000E000B9F7112D222D1093250020930B010895AF
:00000001FF
